:020000040001F9
:10C00000B0370020F5C001000FC1010011C10100CF
:10C010000000000000000000000000000000000020
:10C0200000000000000000000000000013C101003B
:10C03000000000000000000015C1010017C1010050
:10C0400019C1010019C1010019C4010019C1010081
:10C0500019C10100000000002DC20100C5C101008E
:10C0600019C1010019C1010019C1010019C1010064
:10C0700019C1010019C1010019C1010019C1010054
:10C0800019C1010079C3010019C1010019C10100E2
:10C0900099C3010019C10100A1C3010019C1010028
:10C0A00019C1010019C101000000000000000000DA
:10C0B0000000000000000000000000000000000080
:10C0C0000348854600F06CF80048004751DA01004B
:10C0D000B0370020401E00BF00BF00BF00BF00BF40
:10C0E00000BF00BF00BF00BF00BF00BF00BFF1D155
:10C0F000704700000321094802680A4302600848AB
:10C1000002680A4302600748804707480047FEE785
:10C11000FEE7FEE7FEE7FEE7FEE70000240500403D
:10C1200054050040C5C30100C1C0010030B50B4635
:10C13000014600202022012409E00D46D5409D4201
:10C1400005D31D469540491B254695404019154687
:10C15000521E002DF1DC30BD03460B439B0703D07C
:10C1600009E008C9121F08C0042AFAD203E00B78BC
:10C170000370401C491C521EF9D27047D2B201E034
:10C180000270401C491EFBD270470022F6E710B532
:10C1900013460A4604461946FFF7F0FF204610BD35
:10C1A000064C0125064E05E0E36807CC2B430C3C0A
:10C1B00098471034B442F7D3FFF786FFA0E601009A
:10C1C000C0E6010070B50E480168002917D00024B0
:10C1D00004600C4DA8680C4E80B24B21F080090120
:10C1E00048430A49FFF7A2FF4100401881B2B180DD
:10C1F00007A000F093F90C49012048602C6070BD45
:10C20000007100400075004000280020FF0300007E
:10C21000564444204D6561737572656D656E743A60
:10C22000202564206D560A0000700040F8B50024F7
:10C23000FF250135012627460094284601F0A0FE7F
:10C24000002808D034484068304204D033480021E8
:10C250002818344301602D1D76007F1CADB2042FD9
:10C26000EBD3FF207D3001F08BFE002807D02C4857
:10C2700000210160400704432A48006900902A4FCA
:10C28000200712D00126002526420AD02748AA00FE
:10C29000111808690969C004C00E8903BA58890FCA
:10C2A000904776006D1C042DEED3002C30DA00246C
:10C2B0001D4E0021301940304156491C25D00778C9
:10C2C000BD06AD0E284601F051F980003658002E0B
:10C2D0001BD0BF090121A940154AA8008018006899
:10C2E000009A8003800F114202D0022802D00CE095
:10C2F00003280AD1032F05D102280AD0022128469B
:10C3000001F02EFE39462846B047641C042CCFD3DA
:10C31000F8BD0321F3E70000006300400060004027
:10C320007C61004000050050782E00200065004030
:10C33000000700508307FF22DB0E9A408907090E91
:10C34000994000280BDA0007000F083883080848D6
:10C350009B001818C36993430B43C361704783085C
:10C3600004489B001B1818689043084318607047E6
:10C3700000ED00E000E400E010B506490020086090
:10C3800048608860C860034940390860486001F02F
:10C3900097FF10BD4011014010B501F027FF10BDFF
:10C3A00010B507484068002807D08047002803D010
:10C3B0000022114600F030FB10BD01F0E5F910BD80
:10C3C000AC28002010B501F02DFA002805D00E4948
:10C3D0000C484860C8130D4988610D48018CC9B2EA
:10C3E00001290ED1818C09070BD1018D0906090F96
:10C3F000042906D1808D0006000F02D105490120D5
:10C40000886010BDDFFF07C000050040006C0040E1
:10C41000C00F00F000060040F0B53C4D012185B092
:10C420004902284601F0BBFD01270026384C0028B0
:10C4300023D0FF212531284601F0ACFD00281CD077
:10C44000FF2025302E508120324980008860607D99
:10C45000002800D16F600221684601702E490868EB
:10C4600008600390E17C68460172E0680190E67420
:10C4700006CC6846083C90471DE00421284601F0A0
:10C480008EFD002817D0FF210931284601F082FDDA
:10C49000002810D001F006FEE07C217D88420AD100
:10C4A000607D002800D16F6081201A49800088607B
:10C4B000207D01F00DFEFF211D31284601F06AFDAF
:10C4C00000280DD0A07C218A884202D901F03AFFD1
:10C4D00006E0FF211D316E50002801D001F048FF19
:10C4E000FF214531284601F055FD00280CD0FF20E2
:10C4F00045302E50607D002800D02F60E07C002861
:10C5000002D0207D01F0E4FD05B0F0BD0020004028
:10C51000C02E002000230040802400400FB410B53E
:10C5200003A9044B044A029800F024F810BC08BC8C
:10C5300004B018477BD70100A828002030B4744607
:10C54000641E2578641CAB4200D21D46635D5B000F
:10C55000E31830BC184702E008C8121F08C1002ABF
:10C56000FAD170477047002001E001C1121F002A74
:10C57000FBD17047FFB58DB00446002506E02528A5
:10C580000AD0109A0F999047641C6D1C20780028DF
:10C59000F5D1284611B0F0BD00270121484A009787
:10C5A00000E00743641C23780846203B9840104273
:10C5B000F7D120782E2817D1042007436078641C17
:10C5C0002A280CD10E98641C02C800910E900BE032
:10C5D00000990A22514330394018641C0090207899
:10C5E000014630390929F3D920780028D1D06428B0
:10C5F00008D0692806D075281ED0109A0F99904748
:10C600006D1C5BE00A200E99019001C90E91002873
:10C6100002DA40422D2102E0390504D52B216A4679
:10C620001172012103E0F90704D02021F7E70BAED6
:10C630000B910DE00021FAE70A200E99019001C943
:10C640000E91F7E70199FFF771FD3031761E3170D9
:10C650000028F7D103A8801B20300190780701D56E
:10C66000009801E0012000900199884201DD401A04
:10C6700000E000200027009006E002A8109AC05DAC
:10C680000F9990476D1C7F1C0B988742F5DB04E0E7
:10C69000109A30200F9990476D1C0099481E009009
:10C6A0000029F5DC05E03078109A761C0F99904748
:10C6B0006D1C0199481E01900029F4DC641C65E79B
:10C6C00009280100F7B584B00025168807461580B3
:10C6D000406B1446002813D003780598032E51D3DD
:10C6E0000221017021881122491C89B22180425403
:10C6F0002188491C89B2218043542088401C208015
:10C70000386B00281DD00546208805990246123254
:10C71000B24237D811220A5420881022401C80B21D
:10C7200020800A542088401C20800F202A5C238807
:10C73000401ECA54228840B2521C22800028F5DADA
:10C740000025384620300290807B002806D03346F2
:10C750002246059901F08AF8050014D10298407B21
:10C76000002806D032462146059800F0ABFC0500B3
:10C7700009D1B878002823D0059886462088001D66
:10C78000B04202D90C2007B0F0BD684679DF00281E
:10C79000F9D1218803207246505420881921401C69
:10C7A00080B22080115420887146401C80B22080C5
:10C7B00041186846008801F071FE218840182080E9
:10C7C000F878002817D0218803230A46FB56C91C95
:10C7D0000598B142D6D80221815421880122491CF2
:10C7E00089B2218042542188491C89B22180435456
:10C7F0002088401C20807868002817D021880023DA
:10C80000C3560A46C91C0598B142BBD802218154BF
:10C8100021880A22491C89B2218042542188491C5E
:10C8200089B2218043542088401C20803889002808
:10C830000AD0009438460196062202210830059B52
:10C8400001F06FFE05009ED1388A00280AD00094BE
:10C8500038460196072203211030059B01F061FE46
:10C86000050090D1388B00280AD0009438460196F4
:10C87000152214211830059B01F053FE050082D1CA
:10C88000386A002806D033462246059900F0CAFED1
:10C890000500D8D1786A002806D03346224605998B
:10C8A00001F080F90500CED10298007B002807D066
:10C8B000334622463846059901F028FC0500C2D1CE
:10C8C0003878002807D0334622463846059901F0CB
:10C8D0009DF90500B7D1284655E7000010B596B080
:10C8E00017A0FFF71BFE00F013FA10A908741A48EE
:10C8F00004240178491CC9B2017015911748694692
:10C9000008870120888714A81090144810A9801F58
:10C9100088800C8115A8139038216846FFF735FCF4
:10C9200002206946087000228A70CC7008A908733A
:10C930000EA80A901146684600F012FA16B010BD13
:10C940004164766572746973696E6720757064619D
:10C9500074650D0A00000000002800200F18000078
:10C9600010B503A0FFF7DAFDFFF7B8FF10BD000018
:10C970004164766572746973696E672832290D0A9D
:10C980000000000010B501220221002000F0C0FCD0
:10C99000002801D0072812D107220221012000F02F
:10C9A000B7FC002801D0072809D100210A22084637
:10C9B00000F0AEFC002801D0072800D1002010BDF7
:10C9C00010B50BA0FFF7AAFD18210E48FFF7DDFBFD
:10C9D0000C4803210170002141600172A0220282F3
:10C9E000418273DF010002D007A0FFF797FD10BD61
:10C9F0004164766572746973696E672073746172DD
:10CA0000740D0A00782C00206675636B6572726F76
:10CA1000725F3A2025750000BFF34F8F0449034829
:10CA2000C860BFF34F8F00BFFDE700000400FA05A8
:10CA300000ED00E010B58268C368934203D000F0B7
:10CA400089FE002010BD052010BD002906D0002A57
:10CA500002D0531E134203D0092070470E207047A6
:10CA60000160838000218160C1600846704710B575
:10CA70008268C3689A1A83889A4203D800F074FEC9
:10CA8000002010BD042010BD094B9B68002B07D06F
:10CA9000002A07D0002805D00068037C002B03D0B3
:10CAA000082070470720704741744261002070479A
:10CAB00088280020FFB59007002581B014460E4657
:10CAC000002832D11B4F002C31D001F0C9FA049854
:10CAD00078610320387033461821224600204B43EA
:10CAE000BC601834C10089180D704D708E704C6098
:10CAF0001C19401C0328F5DBFD607D7001240E48E5
:10CB0000BD702405046003211420FFF713FC0B48BB
:10CB100004600B4C0198A06003211120FFF70AFC70
:10CB200060683861002005B0F0BD0720FBE7BD60FC
:10CB3000FBE700008828002080E200E000E100E040
:10CB400000150140FEB50D461B491746896804468D
:10CB500000292AD0002C28D0052D01D20720FEBDA7
:10CB60006069002821D0607C012820D0002601F0D7
:10CB70009BFCC0001049019089684018694601F08B
:10CB8000BDFC002815D0012101700C4944604968A2
:10CB90000830E2C008490198896841186846007861
:10CBA000487001F065FB0020FEBD0820FEBD2E464A
:10CBB000DDE70420FEBD00008828002000150140AC
:10CBC000F8B5134D0446A96800291CD0002C1AD0D2
:10CBD0006069002817D00026267401F065FCC700A4
:10CBE000A8686946381801F089FC00280DD0022198
:10CBF00001704460A868391868460078487001F0F0
:10CC000037FB3046F8BD0820F8BD0420F8BD000011
:10CC10008828002010B5044609488168C2688088C9
:10CC2000511A814207D10121064801F0C7F80028B6
:10CC300001D0052010BD21460148FFF7FBFE10BDC5
:10CC4000582E00205E28002070B50446224888B087
:10CC50001E460D0042601CD0A888296882B21F4879
:10CC6000FFF7F3FE002815D1A889A96882B21B48F6
:10CC70001030FFF7EAFE00280CD120221849684640
:10CC8000FFF76AFAA06806902079002804D00121F5
:10CC900003E0072008B070BD0021684601750677E3
:10CCA0006079002800D00E2069464875E07802902F
:10CCB000A078039020780190607800900949684638
:10CCC00001F024F80028E5D101F0D2F80248012152
:10CCD000801C01F073F8DDE75C280020582E00204E
:10CCE00060E60100F9E3010010B5044606480121A1
:10CCF0004470401C01F0C8F8112803D121460348B4
:10CD0000FFF7B5FE10BD00005C280020682E002053
:10CD1000F8B50F48182141600E4C0025256001260A
:10CD2000066025600C4F3E6021680029FCD08068B9
:10CD3000FF21E12212015043FFF7F8F980B225608C
:10CD40007E60642148430549FFF7F0F9C0B2F8BDA1
:10CD5000007500400071004000700040E40C0000CD
:10CD6000F0B50C4693B01F216A46118007260027B4
:10CD70009180002809D0C17849070DD502A9FFF795
:10CD8000A1FC002809D102AD01E000251780002C8C
:10CD90000ED0E078002802D0304613B0F0BD01AAD2
:10CDA0000AA92046FFF78EFC0028F6D10AAA02E065
:10CDB00068460022878068468088C3B2684600883B
:10CDC000C1B2284672DFE8E710B502881C4C102A71
:10CDD00017D00021112A1AD0192A11D180790028E0
:10CDE0000ED1607901281ED0022822D0032822D03B
:10CDF000042805D12171E2680846002A00D0904736
:10CE000010BD017D0129FBD18088208110BD61709A
:10CE1000808821898842F9D1012005E02169002913
:10CE2000F4D0884710BD022000F014F80028F5D196
:10CE300010BD0320F8E7032020710420F4E7000070
:10CE40002828002010B507210148FFF79EF910BDE2
:10CE500040280020F0B5754C87B06071002606A808
:10CE6000069601F0E9F80127082806D000286FD1BE
:10CE70000698002802D02770D4E00696FFF7E2FF5C
:10CE80006B4D6878002802D06079012805D0A87819
:10CE900000280AD06079022807D1E168002903D070
:10CEA000E7700820884700E0E6706079012808D123
:10CEB0006878002809D05D48193001F0B1F80028E1
:10CEC00003D06079022802D00CE002206071A878BB
:10CED000002805D05548193001F0A2F8002801D1EA
:10CEE00003206071287B002804D16079032801D1D8
:10CEF00004206071287E002804D16079042801D1C3
:10CF000066712671E16800290AD06079032801D092
:10CF1000042805D12878002802D06078002818D08D
:10CF2000A67018216846FFF730F96846067001962A
:10CF300006720396607901280FD0022816D03C4E65
:10CF4000243637465C3F03281CD004285ED13BE0E2
:10CF500069E0A77007208847E3E73448183001905C
:10CF60006846077046820682277152E02F481830C3
:10CF700001906846077029894182A98801820220B0
:10CF8000207146E0A88A69464882288A0882284893
:10CF9000243001F035FB002805D02878002802D085
:10CFA0006078002801D003202FE002206946087233
:10CFB00004200396F8701E4800213838FFF7D0FE91
:10CFC000002830D1052020E0A88B69460882288CF3
:10CFD00048821748243001F013FB002805D0287838
:10CFE000002802D06078002801D004200DE0022043
:10CFF0006946087204200396F8700D4800213838FD
:10D00000FFF7AEFE00280ED10620207160790028BF
:10D0100003D0684673DF002805D1E168002901D0FC
:10D0200020798847002007B0F0BD000028280020A4
:10D03000502D0020F8B5214C028800271E4DE689AE
:10D04000102A15D01E49112A21D0122A2DD0502A7B
:10D050001CD1C288801DB24218D1028B022A15D180
:10D06000C27E837E10021843C007C00F0CD112E0AD
:10D070008188698001461048082216310C30FFF77C
:10D080006BF86F70002E01D100F010FBF8BD00208E
:10D09000C04368806F700868FFF792FD0028F5D0E4
:10D0A000A1690029F2D08847F8BD811D02480822F5
:10D0B0000C30FFF751F8E7E7482800203C2E00200D
:10D0C0005CE601007CB5054608880C4609309042B4
:10D0D00001D90C207CBD684671DF0028FAD1218877
:10D0E0000820685420881B21401C80B220802954CD
:10D0F000208800A9401C80B22080401906220131FE
:10D10000FFF72AF820886946801D80B220800978C0
:10D11000002900D0012129542088401C20800020B3
:10D120007CBD000010B50446FFF784FF2146064889
:10D1300000F00CF8204600F03BFF2046FFF744FECD
:10D14000204600F059F810BD902C002000281ED079
:10D1500000291CD00A88102A14D0112A14D0502A71
:10D1600015D1CA88038A891D9A4202D10B8B022BE2
:10D170000ED083889A420AD18369002B07D00A8B8C
:10D180001A311847898801E00021C943818270471C
:10D19000CA7E8B7E11021943C907C90F00D0012135
:10D1A0008175704707B584B000280DD0828A114B75
:10D1B0009A420BD0827D002A08D06A46128B142A2C
:10D1C00006D9072007B000BD0E20FBE70820F9E7CD
:10D1D0000022009201920292039282896B461A8089
:10D1E000039106A9029101219970808A6946A6DF00
:10D1F000E8E70000FFFF000010B51C4C01886068E4
:10D2000010290DD011290AD1401E606007D1FFF707
:10D21000B9FB002803D02168002900D0884710BD41
:10D2200000281ED100210122084600F071F80028D4
:10D2300001D0072811D107220221012000F068F84F
:10D24000002801D0072808D104220221002000F084
:10D250005FF8002805D0072803D02168002900D0F6
:10D2600088476068401C606010BD000020280020D6
:10D27000F8B507460024234802E0641C042C1AD2A7
:10D28000A2008258BA42F8D1042C14D21D481E4E76
:10D290000C38002929D001290ED002290BD16000B9
:10D2A000201880194578002D05D0184801690029FB
:10D2B00001D028468847F8BD61006118755C8E1959
:10D2C000717800290CD011490A22496880685143BD
:10D2D0000E4A521CFFF736FC002801D10B4847705C
:10D2E0000A48B17814300155DDE78068FFF768FC23
:10D2F00006486100611814308919005D8D78A842D4
:10D30000D1D0F8BD2CE60100EC2C0020082800202C
:10D3100070B50023042811D2440004190D4D012AD0
:10D3200002D101290DD0002246008019094E801932
:10D3300000290CD0012906D0022906D0072318465F
:10D3400070BD0D30C2B22A55F9E74270F7E782701E
:10D35000F5E70000EC2C002010B5054A0146127AD2
:10D360000020D20702D0084600F004F810BD0000EB
:10D3700008280020FEB57A4D0722EB68D2049A43B4
:10D3800002936B6800939C0006461B190020012144
:10D39000019389040746734C3300FFF7CFF8180D4B
:10D3A0001515374755677C887F8891DE9E9E9E9E27
:10D3B0009EC8CED1D8DEDE140F21029A8904914393
:10D3C000A160E7602F70FEBDA260E76060680F2279
:10D3D00092045040400309D5A160E760022E02D1BB
:10D3E000E120C0000AE07D20400107E0E160A76085
:10D3F000022E01D1C82001E0FF2091302E7064215F
:10D40000FEF794FE0099414300223FE0A260E760EE
:10D4100060680F2292045040400304D5A160E76089
:10D4200019204001EAE7E160A760E3E7A260E76056
:10D4300060680F2292045040400302D5A160E7606B
:10D44000D1E7E160A760D7E7A260E76060680F22DC
:10D4500092045040400302D5A160E76001E0E16022
:10D46000A7602E700098410000220FE0A260E760E4
:10D4700060680F2292045040400302D5A160E7602B
:10D4800001E0E160A7602E70009900223648006834
:10D49000FFF758FBFEBDA260E7601BE0616801205A
:10D4A000C00402468A43A2600140E16010E0606867
:10D4B0000121C9040A468243A2600840E060E3E714
:10D4C00060680121C9040A468243A2600840E06006
:10D4D0000199C9E7E160A7602DE023484068FFF7A4
:10D4E0006FFB11218A1B01D0002807D00F22E968A9
:10D4F00092041140A160E760EF60FEBD01210905C3
:10D50000E960012A0CD91046C82148436421FEF77E
:10D510000DFE69680022414313484068FFF712FB83
:10D520000F22E96892041140E160A760FEBD0F215F
:10D530008904A160E7602E70FEBD0722D204AAE72D
:10D540000D218904A160E7600121C904C2E703211C
:10D550000905A160E7608910BCE70F218904B9E7DC
:10D56000082800200005005020E6010002490918A3
:10D570002020085670470000782E0020F8B5234878
:10D58000C16800293ED00E6821494C680769C078FF
:10D59000E11B0D022D0AED1C002814D101201D4AAB
:10D5A000000450601B4A403A50601B49400008602C
:10D5B0001A4908601A49012008602F20FEF78AFDE9
:10D5C00012490120C870B54200D23546E819000260
:10D5D0000F4B000A403318600D4A5168001B091BAD
:10D5E0000902090A0002000AC91C814209D95068CF
:10D5F00018602F20FEF76EFD012007494004803996
:10D600000860F8BD00F02CFDF8BD0000882800205F
:10D61000001501404013014080E200E000E100E01D
:10D6200000100140F8B50646108814468446801D57
:10D630000D46984201D90C20F8BD32880720062AF1
:10D64000FAD31927FF01184BBA4201D99A42F3D1F4
:10D6500071880629F0D3B94201D99942ECD19A4296
:10D6600003D0994201D08A42E6D805216046295468
:10D6700020881221401C80B2208029542088401C20
:10D6800080B220804119308800F008FF21884018BE
:10D6900080B220804119708800F000FF2188401876
:10D6A00020800020F8BD0000FFFF0000F8B51648FC
:10D6B00000F0AAF8144D00260C3D144C002807D0A9
:10D6C000616900291CD001206A461070684616E086
:10D6D0002878002805D06169002911D068460670B5
:10D6E0000DE0687800280DD0A16809480022006884
:10D6F000FFF728FA002803D0A169002900D0884745
:10D700002E70F8BD6168F0E7542800203C2E002000
:10D710005CE6010010B50E4900234A788C78A242DD
:10D7200012D0521CD2B24A70022A00D14B704A78F1
:10D73000074B920018339A580260086910180002CB
:10D74000000A0861012010BD0360002010BD000028
:10D7500088280020826883881A4003689A5C0A70CF
:10D760008168491C81607047C26883881A400368D9
:10D770009954C168491CC160704710B50446C0B2D5
:10D78000FFF7B2FA204610BDF8B51E4C20780028ED
:10D7900037D02069002807D00026E068002805D08F
:10D7A0000025002E04D013E00126F6E70125F8E756
:10D7B000684651DF052806D0002806D00022114611
:10D7C000FFF72AF904E0012602E021690098884762
:10D7D000002D12D1608869460880A06861DF0528A5
:10D7E00006D0002806D000221146FFF715F904E004
:10D7F000012502E0E168A0688847002ED8D0002DFE
:10D80000CFD0F8BDAC28002041880548028891425D
:10D8100004D34088814201D801207047002070471E
:10D820004C2800201048018CC9B2012917D1818CE5
:10D83000090714D1018D09060A0F03D1828D120642
:10D84000120F0ED0090F012903D1828D1206120F7B
:10D8500007D0032903D1808D0006000F01D00020DE
:10D860007047012070470000C00F00F030B51588E8
:10D87000EC1C9C4201D90C2030BD02244C5513886D
:10D880001C255B1C9BB21380CD5413885B1C9BB280
:10D890001380012807D0022807D0032807D00428C6
:10D8A00007D0072030BD002004E0012002E0CC5466
:10D8B00001E00320C8541088401C1080002030BDB7
:10D8C000F8B52C49C8680A690C780F7989688646CA
:10D8D000944600913EE00099E20055182A7836E01F
:10D8E000182353436968521CC918AB78D2B29342CB
:10D8F00000D100220B78022B02D0032B27D123E08A
:10D900004E680346014603E0B14204D00B46C969A4
:10D9100000291CD0F8E7002919D08B4208D1C06932
:10D92000002805D1144F0126BE600026B446012709
:10D930000E68C969D961002909D00B689B190B6071
:10D9400005E00174C06900E000210028F9D1697880
:10D950009142C5D12146641EE4B20029BBD10549DC
:10D9600062460A61C8600F71704501D00120F8BDA0
:10D970000020F8BD8828002000100140F8B50446BA
:10D9800031480026C168009107784EE02E48F90022
:10D9900080680D1843E0002C02D02046E4691FE0A7
:10D9A0002878182141436A68401CC0B25118287079
:10D9B000AA78904200D12E700A784868012A30D1A6
:10D9C000027C002A2DD18A684260CA6882600A6996
:10D9D000C260496981611C490979002900D046600B
:10D9E000194943680A699C46991A0902174B090AA2
:10D9F000994202D28268891807E06146511A0902E9
:10DA00008268090A8A4202D9511A016000E0066060
:10DA10004660012186600174C66100F031FC002C73
:10DA2000B9D1287869788842BAD138467F1EFFB2CA
:10DA30000028ABD10448C1680098814201D0012080
:10DA4000F8BD0020F8BD000088280020FFFF7F00FF
:10DA500088B000233A4A03211846FFF72BF8002824
:10DA600003D000221146FEF7D7FF364D04AB281D28
:10DA700007C807C3FF2101313348009040180191C6
:10DA8000039102900323314A694604A8FFF7DCF8AA
:10DA9000002803D000221146FEF7BEFF2CA0FEF79F
:10DAA0003DFD2949002348225C39082000F086FB0F
:10DAB000002803D000221146FEF7AEFF00200090A0
:10DAC000694601900870684660DF274800F06CFBEB
:10DAD000002803D000221146FEF79EFF1120694660
:10DAE00008700D2221A168467CDF244A01211548D7
:10DAF000FEF7CAFF041E07D000221146FEF78CFF76
:10DB000021461FA0FEF70AFDFEF7E8FE002220498D
:10DB10002868FFF717F8041E07D000221146FEF709
:10DB20007BFF21461BA0FEF7F9FCFEF749FF48DF0B
:10DB30000028FCD000221146FEF76EFFF7E7000038
:10DB4000402B002010E601004029002091E3010055
:10DB5000496E697469616C697A696E672E2E2E2E22
:10DB60002E2E2E2E2E0D0A0025D101004E6F72642E
:10DB700069635F55415254455200000061C901007C
:10DB80006572726F72323A2025750D0A000000002E
:10DB90009A9901006572726F72333A2025750D0AE9
:10DBA0000000000070B5144682880E4605462088A5
:10DBB000111D4118921C994201D8FE2A01D90C204E
:10DBC00070BD521C32542088FF21401C80B220803E
:10DBD00031542088401C80B220808119288800F0B0
:10DBE0005DFC2188401880B22080AA88002A09D0D4
:10DBF000A968002908D08019FEF7AEFA2088A98804
:10DC000040182080002070BD072070BDF8B50F4679
:10DC1000017814460546012902D16878002806D00B
:10DC20002088821C9A422DD8012902D006E00720C4
:10DC3000F8BD69784118891C994223D8181A801EAA
:10DC400086B2684606802188B81C081869467DDFC0
:10DC50000028EDD12878022805D169460988B1420B
:10DC600001D809210AE00821012805D16878B042CD
:10DC700002D86A46108001E068460680684600883F
:10DC8000FE2801D90C20F8BD2288401CB8542088F9
:10DC9000401C80B22080395420886946401C208076
:10DCA0000988401820800020F8BD00008207D30EAC
:10DCB000FF229A408907090E10B5994000280BDA17
:10DCC00003071B0F083B9C080C4BA400E318DC69FE
:10DCD00094430C43DC6107E08408094BA400E4187A
:10DCE000236893430B432360C106C90E012088407B
:10DCF000044908600449086010BD000000ED00E020
:10DD000000E400E080E200E000E100E0F3B504465A
:10DD1000244881B0807D002801D00820FEBD002C61
:10DD200000D1214C206800F010F9207801273946F5
:10DD30001E4E8140B1600021606800F0FDF81C4D6E
:10DD4000A0696862607D217D0843E86603CCE860D5
:10DD50006961207B083C01280ED10021A06800F0F9
:10DD6000EBF8E06800F0F1F8207B39468140B160C3
:10DD7000E168A068A96028610A4E02987060216974
:10DD80003160002806D00C4A217F0A4850600220EA
:10DD9000FFF78CFF042028600020F074B074B77582
:10DDA0007075FEBDC02E002080E601000005005009
:10DDB000002500408000020000230040F8B5294DF6
:10DDC000EA7C002A01D01120F8BDE974E860002047
:10DDD0002875687D002801D100F08AF96868224C16
:10DDE000002805D081202149800048600020F8BD2E
:10DDF000FF212531204600F0CDF80546FF210931ED
:10DE0000204600F0C7F80746FF214531204600F0C4
:10DE1000C1F80646394631432943E9D02846304304
:10DE200006D100F03FF90F48C17C007D8142DFD868
:10DE3000FF21453100206050FF2125316050094904
:10DE4000002DC87401D00320F8BD002E01D00F2092
:10DE5000F8BD497D0120002901D02060C6E760603F
:10DE6000C4E70000C02E0020002000400023004036
:10DE700010B5044C607D002803D100F039F9012071
:10DE8000607510BDC02E0020F8B5204C0026A27C85
:10DE9000002A01D01120F8BDA174A06000202082CA
:10DEA0001B4DFF271D37E8510120A86000F04AFAFA
:10DEB0006168002911D024E0FF2701372946144862
:10DEC00000F068F8002802D1208AB842F6D1208AF2
:10DED000B84203D000F036FA00E03D46A07C218A2B
:10DEE0008842E9D8218AC81FF9380CD0084F294642
:10DEF000384600F04FF80028F9D00120F8600020E3
:10DF0000A0743046F8BD0F26F9E70000C02E0020AF
:10DF10000020004030B552000A439900039C0A4398
:10DF20002102049D0A4329040A4302498000401843
:10DF3000026030BD000700501CB500220B46009265
:10DF400011460192FFF7E6FF1CBD1CB500210091B0
:10DF50000B46012201911146FFF7DCFF1CBD0000BA
:10DF6000820006481018026803231B049A430260CB
:10DF7000026809040A43026070470000000700506D
:10DF8000034940180068012800D0002070470000B5
:10DF9000006000404058002800D001207047032254
:10DFA000120280184068084000D00120704700002D
:10DFB00070B50188194C0546102912D011291BD0C3
:10DFC00020464088132924D0522909D100231A461B
:10DFD0001946A9DF002803D000221146FEF71CFDD8
:10DFE00070BD0720FFF7B8F9002803D000221146C2
:10DFF000FEF712FDA8880AE00020FFF7ADF900281F
:10E0000003D000221146FEF707FD0020C0436080C8
:10E0100070BD00231A4685217FDFDBE70028002042
:10E020000021425C002A01D001207047491C0629CA
:10E03000F7D300207047000007490979490701D448
:10E0400008207047002804D0044949780160002066
:10E0500070470E207047000064280020D82E002052
:10E0600070B501240B49600408600B4940108860BA
:10E07000094940398860094D6C602F20FEF72AF865
:10E08000AC60074D00242F202C61FEF723F8EC70C4
:10E0900070BD000080E100E040130140001001402D
:10E0A00088280020FF2107480931002242500648F5
:10E0B00081690648037DC268D154017D491C017500
:10E0C000704700000020004000250040C02E0020C6
:10E0D0001FB5012269460A7008720448C16801919F
:10E0E0000021C17406C8684690471FBDC02E00209D
:10E0F000FF220548253200218150FF22093281503C
:10E10000012101607047000000200040FFB5074674
:10E11000806A81B0144600283DD000253846203062
:10E12000009033E00C20B96A68430E18B088801C58
:10E13000FE2802D90C2005B0F0BD22880299401CAF
:10E14000885420881622401C80B2208002990A54EC
:10E150002088401C80B2208002994118308800F04D
:10E160009DF92188401880B22080B288002A0AD008
:10E17000B16800290FD0029BC018FDF7EDFF208881
:10E18000B188401820806D1C0098EDB2007BA84239
:10E19000C8D80020CFE70720CDE710B508461146C4
:10E1A000C046C04610BD0000002803D00249C86028
:10E1B000002070470E207047AC28002070B5002961
:10E1C00001D08C0701D0072070BD064C0125A1604D
:10E1D00062800549636010DF0028F5D125701620A4
:10E1E0002EDF70BDAC2800209BE10100FEB51F4C66
:10E1F00000252769E06802906846FFF78BFA0190D6
:10E20000FFF75EFB06460198002822D00023009805
:10E21000E16817E00E680A46864202D9301A0860A3
:10E2200012E0801BF31800261660D668D169B44648
:10E23000002E07D0FE183602360A566066469660F3
:10E24000D56115460029E5D12846E160FFF796FB28
:10E2500006E02846FFF792FB002801D1002E02D0ED
:10E260000298FFF78BF900202071FEBD882800205E
:10E2700001200249000508607047000000E200E04C
:10E2800010B50E4BD968002906D002680C68A2426E
:10E2900004D8A21A0A60C161D86010BD0B4604E020
:10E2A0000B46C969121B002904D00C689442F7D3AD
:10E2B000A41A0C600260C161D86110BD88280020DA
:10E2C000F8B51E4DEC68002C36D01D48002740687C
:10E2D0002969401A0602360A2068B0421AD8361A4E
:10E2E000C7192246107CE469002811D00020107460
:10E2F0006B69002B09D0916950699847002807D0B5
:10E3000000221146FEF788FB02E0516990698847B8
:10E31000002CE1D16978A878814206D1401CC0B2B6
:10E32000A870022801D10020A87004490006800DC1
:10E3300018310F50FFF79CFFF8BD0000882800201F
:10E3400000150140FF2107481D31002242500648B8
:10E35000028A8168895C028A521C02820348C16178
:10E360007047000000200040C02E00200025004023
:10E370001FB500216A46117010720448826801922C
:10E38000817406C8684690471FBD0000C02E00205B
:10E3900070B50178002909D0012901D0022904D1E2
:10E3A000002240681146FEF737FB70BD104C0F4D40
:10E3B00060782818FEF72EFC6078401CC2B2A818BE
:10E3C00062702038C07F0A2801D0142AEDD3074993
:10E3D0000848FEF7E7FE082805D0002803D00022F1
:10E3E0001146FEF719FB0020607070BD2C2900203B
:10E3F00000280020902C00207CB50178254D0129B3
:10E400000AD002292FD000292CD129462248FEF714
:10E4100011FB00282ED031E0406801781E481038EA
:10E42000FEF725FB1C4C103C002805D001216A4654
:10E4300011700190684608E0A068E168081A012898
:10E4400005D1002069460870684669688847A06859
:10E45000E168081AA188884204D80E480121801C6E
:10E46000FFF7ACFC7CBD02216A461170C0680190C8
:10E4700068460CE001210748FFF706FD0648816861
:10E48000C0688842EED10320694608706846696812
:10E4900088477CBD5C280020682E00200870000A98
:10E4A000487002207047000012494868C005C00D3E
:10E4B00019D0103840B2002807DA0207120F083AC4
:10E4C000920892005118C96904E081080A4A89003B
:10E4D000891809688007C00EC1400806800F01280E
:10E4E00003D0032803D0022070470020704701208A
:10E4F0007047000000ED00E000E400E0427883781F
:10E50000521CD2B2934200D100220378934201D12F
:10E51000002070470A70416840781822504308185C
:10E520007047FFB583B016460C9D0D9C1F46022216
:10E5300000950194039800F00CF8002807D13B46A1
:10E540001022314600950194039800F002F807B0BC
:10E55000F0BDFFB583B0074600200C9C8646268898
:10E5600005463AE07868A90042181188684681801B
:10E570005188C1800022694601A865DF002839D191
:10E58000684601780598814226D17046002801D05E
:10E59000002200E002222088891842180D998A4240
:10E5A00027D8714600290AD1401C80B22080069AE3
:10E5B000049911542088401C20800120864621881F
:10E5C00006980A18694601A865DF002812D1694635
:10E5D00020880978401820806D1C3888A842C1DC4A
:10E5E000704600280AD02088801B401E80B2FF2879
:10E5F00002D90C2007B0F0BD069988550020F9E734
:10E600000179002902D1007B002800D00120704749
:10E61000C42800200B09080A0100000000E0D7010F
:10E62000AC2C0020CC2C0020F82C00201000000086
:10E63000110000001300000014000000100003008F
:10E6400071D201001100030071D201001300030018
:10E6500071D201001400030071D201001C2E0020B1
:10E66000090000000B0000000A0000000800000084
:10E67000000000000000000000509D0003000000AA
:10E68000090000000B0000000A0000000800000064
:10E69000000000000000000000509D00030000008A
:10E6A000C0E6010000280020C400000056C501009B
:10E6B00084E70100C4280020EC0E000066C50100BC
:10E6C0000000FFFF0000000000000000000000004C
:10E6D000000000000000000000000000000000003A
:10E6E000000000000000000000000000000000002A
:10E6F000FFFF00000000000000000000000000001C
:10E700000000000000000000000000000000000009
:10E7100000000000000000000000000000000000F9
:10E7200000000000000000000000000000000000E9
:10E7300000000000000000000000000000000000D9
:10E7400000000000000000000000000000000000C9
:10E7500000000000000000000000000000000000B9
:10E7600000000000000000000000000000000000A9
:10E770000000000000000000000000000000000099
:04E780000024F4007D
:040000050001C0C175
:00000001FF
